:020000021000EC
:1090000000600020A59301005D9301005F930100C3
:10901000619301006393010065930100000000006B
:109020000000000000000000000000006793010045
:1090300069930100000000006B9301006D93010033
:10904000BDCA01006F930100C1CE01006F93010002
:109050006F9301000000000075CD01006F930100C7
:109060006F9301006F9301006F9301006F930100F4
:109070006F9301006F9301006F9301006F930100E4
:109080006F9301006DA601006F9301006F930100C3
:109090006F9301006F930100191D02006F9301008F
:1090A0006F9301006F9301000000000000000000BA
:1090B0006F9301006F9301000000000000000000AA
:1090C00000000000000000000000000000000000A0
:1090D0000000000000000000000000000000000090
:1090E0000000000000000000000000000000000080
:1090F0000000000000000000000000000000000070
:10910000000000000000000000000000000000005F
:10911000000000000000000000000000000000004F
:10912000000000000000000000000000000000003F
:10913000000000000000000000000000000000002F
:10914000000000000000000000000000000000001F
:10915000000000000000000000000000000000000F
:1091600000000000000000000000000000000000FF
:1091700000000000000000000000000000000000EF
:1091800000000000000000000000000000000000DF
:1091900000000000000000000000000000000000CF
:1091A00000000000000000000000000000000000BF
:1091B00000000000000000000000000000000000AF
:1091C000000000000000000000000000000000009F
:1091D000000000000000000000000000000000008F
:1091E000000000000000000000000000000000007F
:1091F000000000000000000000000000000000006F
:10920000354936480A1A02D0072291438D4634491F
:1092100034480A1A06D00722914381F309880222B2
:1092200082F3148830483149314A00F044F831481B
:109230003149324A00F03FF831483249324A00F0B1
:109240003AF832483249334A00F035F83248334967
:10925000334A00F030F833483349344A00F02BF8F1
:1092600033483449344A00F026F83448344900225F
:1092700000F02CF833483449002200F027F8334836
:109280003349091A082902DB002202604160314A91
:1092900090471F481F49884205D00268043003B434
:1092A000904703BCF7E700208646EC4600200021EB
:1092B000294A9047FEE7884207D0521A05D0037822
:1092C00001300B700131013AF9D17047884202D068
:1092D00002700130FAE7704700600020005800205B
:1092E000006000200060002000480200541A0020A6
:1092F0009C1A0020EC930100EC930100F222020082
:1093000000480200541A0020541A00206C24020065
:109310006C2402006C2402006C2402006C24020005
:109320006C2402006C2402006C240200FE47020040
:10933000484802009C1A00209C1A00209C1A002019
:10934000DC2B0020DC2B0020DC2B0020DC2B002081
:10935000DC330020BB93010005D60100FEE7FEE7E9
:10936000FEE7FEE7FEE7FEE7FEE7FEE7FEE7FEE7D5
:1093700009480068094909680A280AD1002908D162
:10938000074802686FF070031A404FF040031A4319
:10939000026000F009B80000300100103401001034
:1093A000E40E0040FFF7E4BF0B484FF0070188438D
:1093B00085460A488047FFF723BF094809490A4AFA
:1093C000884207D0521A05D0037801300B70013162
:1093D000013AF9D1704700000060002001C501008A
:0C93E00058240200401A0020541A0020FB
:1093EC007047000007B5044B0093044A402300F07B
:1093FC0032F803B05DF804FB0D9401009D1A0020B7
:10940C002DE9F84388461446B2B10F4B0F4E032595
:10941C00002743F00109224608EB0701002004F065
:10942C006DFA0744241A48B933782BB14FF47A40BB
:10943C00C847013D02D13570BDE8F8830123337074
:10944C00002CE8D1F8E700BF702402009C1A002021
:10945C00704704F083BAF0B595B01D461646084621
:10946C000C4602F047FF1A9B0D93CDE908650025C9
:10947C002B46082205A920460A958DF82C500C95F0
:10948C0002F054FF079B0293069B03939DF8143044
:10949C008DF8115003F00302012A1DD1BDF81420E0
:1094AC00059DC3F3C203C2F383168DF81030B200CE
:1094BC0008230EA9204602F039FFC5F3952508AB09
:1094CC000093324602AB0EA9284600F041FB204621
:1094DC0002F014FF15B0F0BD022AF8D1BDF81650F9
:1094EC00C3F3C203C5F389158DF810300827082D76
:1094FC002E4628BF08263B4632460EA9204602F0CF
:10950C0015FFAD1B08AB02AA31460EA8374400F07C
:10951C0083FB002DEBD1DAE708B5FFF79AFF04487F
:10952C00042100F085FA034B01225A7108BD00BFDB
:10953C0048240200541A00200378024613F0040059
:10954C0006D003F00300012803D0022809D0012023
:10955C0070470B6812880233C2F3831213440B60FA
:10956C0070470B685288023303EB92130B60EEE7E3
:10957C002DE9F04FDFF81CA187B00F4600230446FD
:10958C00861C0DF1070015468DF8073000F0FCFE27
:10959C00DAF804203A60DAF8083003F580739B1A85
:1095AC000AF21C470AF583690AF21448B3421AD32B
:1095BC000020002D69D004F00F039B0143F005033C
:1095CC0063F30F00DAF80430DAB2033233444AF8AA
:1095DC0022009DF80700CAF8043000F0F9FE0120C3
:1095EC0007B0BDE8F08F0121384602F0EFF848468D
:1095FC0002F007F9404602F004F9DAF8080002908C
:10960C00C0B203300AEB800002A9FFF795FF029B62
:10961C0030BBDAB20AEB8202D16803919A1C013397
:10962C00DBB20AEB83030292D3F80CB001F0030314
:10963C00012B22D0022B15D08346404602F0E4F8D1
:10964C0010B1029BCAF808305946384602F0BEF8F1
:10965C00DAF80830DAF8042003F580739B1AA5E7D2
:10966C00D8B2CEE7BDF80E30C3F3891303334FEAFB
:10967C001B4B02EB93030293DFE7BDF80C30C3F3F3
:10968C0083134FEA1B4B1344F5E7A40544F0060083
:10969C0098E700BFB01B0020064B074810B500220E
:1096AC001A7002F0E0FD044610B9044802F06CFE9A
:1096BC00204610BDB01B00206C230200AC2402001D
:1096CC0030B50A4C71B10A4A0A49121BD208002360
:1096DC009A4201D1002030BD31F82350854202D08E
:1096EC000133F5E7034654F83300F4E78023020016
:1096FC0048240200541A0020094B013903EBC00026
:10970C00032909D8DFE801F00A0204060420704797
:10971C0000797047407970470020704702207047ED
:10972C0080230200034BD3E90130C31A584258413D
:10973C00704700BFB01B00202DE9F04186B0FFF749
:10974C00F1FF0546002840F0ED80774CC4F8180472
:10975C00BFF34F8FA3680293DBB2033304EB830098
:10976C0002A9FFF7E9FE029B18B1D4F81824002ACD
:10977C005AD0DAB2991C013304EB8202DBB204EB4F
:10978C008303D268DB68049302F00303022B039279
:10979C00029154D1BDF80E306448C3F38917502F91
:1097AC003E4628BF502606F1080166F38F13C1F31D
:1097BC000901ADF80E3002F06EFD0546002800F0F0
:1097CC009C8002F097FD0023082203A9284602F092
:1097DC00A3FD0299CB43DBB20133C9B20331B6EB23
:1097EC00830F4FEA830204EB810125D95FFA82F8DB
:1097FC000823A6EB0806284602F08EFDF6B208F107
:10980C0008034B4903F0FC033246284602F084FD62
:10981C00029B033703EB97070297D4F81834002BFD
:10982C0043D1D4F8106453E062689A4294D8A26091
:10983C00284606B0BDE8F08108233246E5E7012B47
:10984C005BD1BDF80C303948C3F38311062928BF0E
:10985C00062161F38913023101F00F018900ADF883
:10986C000C3002F018FD0546002846D002F042FDEF
:10987C000023082203A9284602F04EFD0026BDF85D
:10988C000C20C2F38312B300964203F10803C4D236
:10989C0002994A1CC9B20331029204EB81010422E1
:1098AC00284602F039FD0136E9E7284602F026FD8C
:1098BC00FFF738FF80F00105EDB2B9E7F3685B798B
:1098CC0023B1336829461B6830469847F3681E68F5
:1098DC00002EF3D1284602F011FD0DF107008DF892
:1098EC00076000F051FDD4F818340BB9029BA3604B
:1098FC009DF8070000F06CFDDAE7D4F8104454B979
:10990C000C4B0D480D49C01AC008000440F0020071
:10991C0000F05CF8CCE7236820469B689847E36826
:10992C001C68ECE7002583E7B01B00206C230200C9
:10993C00BC1B002080230200A823020094240200F8
:10994C002DE9F34704460E46924601A9012218461A
:10995C009946FFF70DFE1B4F10B3019D4FF0000809
:10996C00AA1CC84508EB020123D11748002101F0BD
:10997C00E6FE80F31000000440EA1440E4006B1C87
:10998C0004F03804DBB2EDB244F0010407EB8303BE
:10999C00033544EA881444EA8624D86047F8254005
:1099AC003B781BB1FFF7C8FE0028FBD102B0BDE825
:1099BC00F087C9B207EB81015AF82830CB6008F167
:1099CC000108CEE7B01B0020CC1F002000231A4654
:1099DC00FFF7B6BF07B50123019201AAFFF7B0FF4D
:1099EC0003B05DF804FB07B5CDE9002302236A46FA
:1099FC00FFF7A6FF03B05DF804FB1FB5CDE901230B
:109A0C00069B039301AA0323FFF79AFF05B05DF8A9
:109A1C0004FB1FB5CDE90023069B0293079B039320
:109A2C006A460423FFF78CFF05B05DF804FB0000C9
:109A3C0030B50F4CD4F8102403460020114631B930
:109A4C00D96808714AB9C4F810340A6030BDC968C5
:109A5C000D79854206D00968F1E7D26814680C606C
:109A6C001360F3E701300A28E8D14FF0FF30EDE73F
:109A7C00B01B002038B5084B0125D3F810441D70DD
:109A8C0004B938BDE3685D71236820465B6898476C
:109A9C00E3681C68F4E700BFB01B0020C38873B5F3
:109AAC0004460D4633B1144A00921449144A284610
:109ABC0001F00DFF217A05291CD0637A4BB1A088E7
:109ACC00FFF71AFE0F4B104953F82020284601F0DF
:109ADC00FEFE227A0D4BA08853F822600021FFF77E
:109AEC00EFFD0B4903463246284602B0BDE87040F4
:109AFC0001F0EDBE02B070BDD8240200C0240200FB
:109B0C00B824020044250200233B02006825020011
:109B1C00DD24020010B5037A052B0C460FD0437AD6
:109B2C0023B1084A0849204601F0D1FE07492046D6
:109B3C0001F0CDFE2046BDE8104001F0BDBE002A6C
:109B4C00F8D0F3E7D8240200233B0200D52402000E
:109B5C002DE9F04385B01F460C9D002395F80C9021
:109B6C002B7306460C46904629463846FFF796FF5F
:109B7C00B8F1060F09D8DFE808F00412181F2833D3
:109B8C0040003146284601F0A2FE00222946384604
:109B9C00FFF7C0FF85F80C9005B0BDE8F083226894
:109BAC003146284601F093FEEFE7D4E90023314615
:109BBC00284601F08CFEE8E7A36800933146D4E90F
:109BCC000023284601F083FEDFE7E3680193A368D6
:109BDC0000933146D4E90023284601F078FED4E7FF
:109BEC0023690293E3680193A36800933146D4E997
:109BFC000023284601F06BFEC7E7636903932369D2
:109C0C000293E3680193A36800933146D4E90023DF
:109C1C00284601F05CFEB8E708292DE9F74F80468D
:109C2C000E4617461C463DD800251B7B2573214646
:109C3C0010460193FFF732FFDFF888A0DFF888B0F9
:109C4C00AE4232D918F805205946204601F03FFEA5
:109C5C000135082DF4D11D49DFF874A0DFF874B07C
:109C6C00204601F034FE4FF000094E4524D918F877
:109C7C0009507E2D1ED8284608F04AFA002814BF39
:109C8C002A462E225946204601F021FE09F10109EF
:109C9C00B9F1080FE9D1012221463846FFF73AFF06
:109CAC00019B237303B0BDE8F08F5146204601F0B1
:109CBC000EFECDE72E22E5E75146204601F007FEC9
:109CCC00E4E700BFED240200E7240200F1240200C7
:109CDC00EF240200F3240200C30710B507D4F023CD
:109CEC00054A4008145C23401943115410BD090166
:109CFC00C9B20F23F4E700BF9820002030B5094B00
:109D0C001C78094B0246196800239C4201DC002098
:109D1C0030BD11F83350954201EBC300F8D001333C
:109D2C00F3E700BF68200020A820002070B504468F
:109D3C000D46FFF7E3FF30B1436823B129462046B7
:109D4C00BDE87040184770BD034B044819680022E9
:109D5C00490800F02CBA00BF6C20002070200020B5
:109D6C0010B5C0B2FFF7CAFF0446007802F0F2FF4C
:109D7C0063785A1E53425341834208D1044BD3E9B2
:109D8C000023134303D1BDE81040FFF7DDBF10BD26
:109D9C009020002037B54308374AD35CC2074CBF2C
:109DAC001B0903F00F0304460D46042B25D8DFE8EE
:109DBC0003F003262F3C4000F9B10121FFF78CFF83
:109DCC0000230DF107008DF8073000F0DDFA0120BB
:109DDC00A4F12003C4F12001284A20FA01F100FA71
:109DEC0003F30B43A040D2E9004120430B43C2E9EB
:109DFC0000039DF8070000F0EBFA03B030BD00291A
:109E0C0018BF0221204603B0BDE83040FFF764BF05
:109E1C0049B10321FFF760FF0121204603B0BDE8E3
:109E2C003040FFF783BF0121ECE70029E5D1042185
:109E3C00E8E709B10321E5E7FFF74EFF2946204685
:109E4C00FFF774FF0DF107008DF8075000F09CFA36
:109E5C000120A4F12003C4F12001084A20FA01F1E9
:109E6C0000FA03F30B43A040D2E9004124EA0000BE
:109E7C0021EA0303BBE700BF9820002090200020BC
:109E8C002DE9F041124E134F00243378A34208DC25
:109E9C00114BD3E90023134318D0BDE8F041FFF771
:109EAC0053BF3D6805EBC40815F8340002F052FFAF
:109EBC0098F801305A1E53425341181A41424141FD
:109ECC0015F83400FFF766FF0134DEE7BDE8F081DA
:109EDC0068200020A820002090200020092AF7B537
:109EEC0005460C4616463ED902F06CFEE8B11F4BF7
:109EFC001F481D601F4B204F1C70204B002110224F
:109F0C001E6008F06BF91E4B00200021C3E9000114
:109F1C00013CE4B20326FF2C0DD11A4A1A48002149
:109F2C0003B0BDE8F04000F037B902F013FE002892
:109F3C00DDD003B0F0BD9DF8063015F834008DF877
:109F4C00046005EBC40223F007038DF8063001A969
:109F5C0093788DF805303A4602F03EFE013CE4B2AF
:109F6C000028D8D0E5E70720E3E700BFA8200020B1
:109F7C0098200020682000206D9D01006C2000209E
:109F8C00902000208D9E01008825020070B5084DA0
:109F9C00084E00242B789C4201D3002070BD3368FE
:109FAC00012113F8340002F08FFE0134F2E700BFF8
:109FBC0068200020A82000201FB50021039001AAD2
:109FCC0044F20100CDE9011100F004F805B05DF890
:109FDC0004FB000038B572B6FFF74CFDFFF7ACFB85
:109FEC000028FBD1104B114C114D1249E41AE40816
:109FFC00240444F00100FFF7E9FCD5F8F030DB074E
:10A00C0000D500BE0C4944F00200FFF7DFFCBFF3A3
:10A01C004F8FEA68094B02F4E0621343EB60BFF325
:10A02C004F8F00BFFDE700BF80230200A823020072
:10A03C0000ED00E08C250200982502000400FA05D2
:10A04C0010B5D0E90243D1E90202A04272EB03033E
:10A05C002CBF0120002010BD08B50A4800F0E9FA19
:10A06C00094AD2E90031C018084BD3E9002341F169
:10A07C000001904271EB030303D210F1807041F1A7
:10A08C00000108BD5C1A0020B0200020282100200F
:10A09C0037B505460C460A4801A901F084FA60B1AF
:10A0AC000570446001A9064801F0A7FA18B10548EB
:10A0BC0000F0C4FA002003B030BD0420FBE700BF61
:10A0CC00142100205C1A002038B5184B1B7804466C
:10A0DC0013B90025284638BD0028FAD0037F03F0B9
:10A0EC00FF05002BF5D0FFF7B7FFD4E90223904210
:10A0FC0071EB030314D3236903B92377D4E9053037
:10A10C00984721690029E4D0237F03F0FF05002B39
:10A11C00DFD0D4E902325B1842F10002C4E902320A
:10A12C000348214602F04FF9D4E700BFB8200020C5
:10A13C00B425020013B5114B11491868019008237E
:10A14C001048582201F0FAF9044698B90E4A0F4803
:10A15C0001A900F05FF9044660B90C48012100F038
:10A16C004BFA01230A4A0948194600F0ADF9094B8C
:10A17C0001221A70204602B010BD00BFB0250200AB
:10A18C00BC2000201421002005A201005C1A002034
:10A19C00FFFF7F00B82000203AB103685A614A1EC5
:10A1AC00514251411961002070470720704738B562
:10A1BC00037F04460D4683B98261FFF74DFF236987
:10A1CC00281841F10001C4E9020103B125612146BF
:10A1DC000020BDE83840FFF75BBF002038BD0023EE
:10A1EC00014603770120FFF753BF0000014800F040
:10A1FC0020BA00BF5C1A00202DE9F347064600F098
:10A20C0003FA40B1584AD2E9003113F1807341F19D
:10A21C000001C2E900310021304600F004FA38B1E7
:10A22C00524C236823B12068FFF74EFF00232360B4
:10A23C000121304600F0F7F920B1FFF70DFF4C4B30
:10A24C00C3E900014B48494D4B4C4C4F01A901F05F
:10A25C00E4F9002842D1DFF82081444CDFF820914A
:10A26C00404602F0C6F82368002872D07BB1236800
:10A27C00D0E90252D3E902138D4272EB03032AD2C6
:10A28C0023681B7F1BB12168404602F09CF84046B6
:10A29C0002F0A9F8D0E9027A0546FFF7DDFE3F1A75
:10A2AC006AEB010A012F7AF1000345DBB7F5350F94
:10A2BC0040D3FFF79BFF334A02444FF4960300212F
:10A2CC00484600F021F900283ED1236813B93046E6
:10A2DC0000F0F2F8256002B0BDE8F0870378012B9E
:10A2EC001DD0022B09D14FF00008204602F07BF85C
:10A2FC00002836D080F81C80F7E73BB941680B7F0B
:10A30C0023B901230B77204602F05DF801A9194807
:10A31C0001F0AEF901A9174801F07FF999E74168FE
:10A32C002B68994202D100232B60EFE7204602F004
:10A33C0063F8EBE7AA68C0E70021484600F069F92A
:10A34C002846FFF7C1FE01E00D28F9D00023236059
:10A35C0086E7002BBFD1304602B0BDE8F04700F0D5
:10A36C00AFB801233B70D1E7B02000203021002092
:10A37C002821002014210020B4250200B820002040
:10A38C005C1A0020FFFFB40070B5EFF3108672B6B4
:10A39C000C4A946801239CB993600B4B0B4DD3F87A
:10A3AC00801029401160C3F88050D3F8841051609C
:10A3BC004FF0FF32C3F88420047006B962B670BD4A
:10A3CC000370FAE73421002000E100E0FC06FFBD39
:10A3DC00084B9A6810B55AB150B9EFF3108172B6A8
:10A3EC00054A1C6814605C685460986001B962B6D8
:10A3FC0010BD00BF3421002000E100E003464058AE
:10A40C0082B028B100225A505B580193019B012065
:10A41C0002B07047F8B5204B4479204E43F8242005
:10A42C001F4A204B06EBC4049B1A2279DB081B0441
:10A43C0032B143F002001C49FFF7C8FA0820F8BDFE
:10A44C0002680C88C2F8084590F904508A7804799F
:10A45C005201002DD2B219DB14494F1987F8002391
:10A46C0001226D0904F01F0402FA04F441F825409E
:10A47C00427906EBC201012446F832000C7143F01C
:10A48C0003000B49FFF7A2FA0020D8E7094904F0B2
:10A49C000F040A55ECE700BF4821002040210020A2
:10A4AC0080230200B8230200C025020000E100E076
:10A4BC00E225020014ED00E0036801221A607047E7
:10A4CC00036801225A60704773B501F15005AD0065
:10A4DC000068ADB24FF480348C400026C0F80843BD
:10A4EC00C0F84843465101F5A8714559019522F031
:10A4FC007F42019D40F82120C0F844430BB1C0F8C5
:10A50C00044302B070BD00002DE9F74F0D4622F058
:10A51C007F4402684FF4803705F150068F40804627
:10A52C00B60002EB8500C2F84873B6B2C2F80873E5
:10A53C00D2F8041599464FF0000BD0F84035C0F80E
:10A54C00401542F806B05B1A9259009223F07F43F3
:10A55C00012B009A4FEA850A0CD1264B4FF48060F0
:10A56C0043F001039847D8F8003043F806B09B59E4
:10A57C000193019BD8F80010D1F80465C1F844731D
:10A58C00A31B23F07F43012B1CD11A4B05F5A87597
:10A59C00013443F0010341F825404FF480609847A3
:10A5AC00D8F80030D3F804359E4209D1D8F80030E1
:10A5BC000020C3F84473C3F8047303B0BDE8F08FF4
:10A5CC000D20FAE78A44C9F1FF13CAF84045D1F8C7
:10A5DC000405221A013A22F07F4203F57F4393428D
:10A5EC00EED3002AE2D10134CAF84045D1F8043543
:10A5FC009842DAE70026020003680222C3F84423DB
:10A60C0009B1C3F80423704700684FF48271FFF757
:10A61C00F5BE4FF4803303FA01F10368C3F8481315
:10A62C00C3F80813704750318900006889B2FFF7EE
:10A63C00E5BE0368D3F804057047000090F90430B8
:10A64C00002B09DB5A09012103F01F0301FA03F364
:10A65C004032024941F82230704700BF00E100E06F
:10A66C00024B034A1B681068184700BF48210020A2
:10A67C004021002070B5064E0546002456F8043BD8
:10A68C000BB1284698470134042CF7D170BD00BF9C
:10A69C00582100204388033300EB830399420BD3EA
:10A6AC0082884FF6FF739A4208D0038833B18068D2
:10A6BC00431C584258417047022070470120704794
:10A6CC00033080B240F2FE33984230B51FD8134BA2
:10A6DC001A783AB91C895D892C440444A4B2B4F5A7
:10A6EC00806F0AD91A7DAAB99A8BDC8B224402445A
:10A6FC0092B2B2F5806F0DD801220A801446142252
:10A70C0002FB04335A8910445881002030BD48F2B2
:10A71C000860FBE748F20660F8E700BF8C210020D8
:10A72C000B4A0C495388142000FB0311CB6833B936
:10A73C000420496810700122074801F05DBB0749ED
:10A74C000523137002238B80012209680023F3E791
:10A75C00702100208C210020401A0020542200205F
:10A76C0007B5002305490093054A096805480823E5
:10A77C0001F0A8FA03B05DF804FB00BF54220020DE
:10A78C0014260200401A002007B50023014600934E
:10A79C00034A0448082301F095FA03B05DF804FB62
:10A7AC000C260200401A002013B500230C4600931F
:10A7BC000146084A0848042301F084FA38B9074BCB
:10A7CC00142101FB043101230B7402B010BD48F2BB
:10A7DC000D60FAE708260200401A00208C210020A8
:10A7EC0037B50A480A4B42689C8819685388032578
:10A7FC00033305709BB2002000909B0001EB840199
:10A80C00044801F05FFA03B030BD00BF7021002096
:10A81C0054220020401A002010B50146044800F0D4
:10A82C00C2FE1C220446002107F0D8FC204610BDB5
:10A83C004022002068B10268084B9A4209D1406856
:10A84C00074B984207D00133984214BF03200120D4
:10A85C007047032070470020704700BFDEC0ADDE9C
:10A86C00FE011EF12DE9F0410D460223154F2B8000
:10A87C00164600F5805100F108044FF001088C4297
:10A88C000ED2236801330BD02046FFF703FF48B1EB
:10A89C000EB186F80080022809D14FF480632B801A
:10A8AC00BDE8F081A3683A68934200D93B602B88DD
:10A8BC006288033313442B806388033304EB8304D3
:10A8CC00DDE700BF8421002038B5144B14220D465F
:10A8DC0002FB00335C682B6804F58051A3B15C88E3
:10A8EC00033403EB84048C4215D22368013312D059
:10A8FC002046FFF7CFFE012808D002280BD00028F5
:10A90C00F1D12C60012038BD0834ECE763880333A7
:10A91C0004EB8304E7E70020F5E700BF8C2100205F
:10A92C00426873B504460D466AB3234BD9688A4214
:10A93C0029D31B699A4226D812F0030323D11F494D
:10A94C000089098988421ED12068916888421AD1F1
:10A95C001B4841688A4203D901F580518A420DD3C4
:10A96C0081698A420CD901F580518A4208D20122B0
:10A97C002A80B3FA83F0400902B070BD1A46F7E79B
:10A98C0048F20963F5E700262E800196288801A974
:10A99C00FFF79AFF30B92B8801339BB2012B2B8028
:10A9AC00F3D9E9E7019B226899689142EED1636083
:10A9BC00024B1B892381DFE7401A00207021002005
:10A9CC008C2100202DE9F8431C461D4B1B780646B4
:10A9DC000F46154673B382B37CB3DFF868804FF033
:10A9EC001409A388012B02D948F2096020E009FB65
:10A9FC0003F318F803302BB9A0882146FFF764FF46
:10AA0C0020B92060A3880133A380EAE723681EB134
:10AA1C00998832889142EFD11FB119883A889142B6
:10AA2C00EAD19A68C5E90023074B1B892B810020CA
:10AA3C00BDE8F88348F20160FAE748F20460F7E7F2
:10AA4C00682100208C2100207021002008B5074BC4
:10AA5C005888191DFFF738FF18B1BDE80840FFF7FB
:10AA6C00BFBEBDE80840FFF75BBE00BF70210020F1
:10AA7C002DE9F047A14FDFF8888288B006463B6885
:10AA8C0023B9A048414600F0C8FD38603D682978DC
:10AA9C004B1E052B07D8DFE813F020007900790056
:10AAAC000B010B01610148F20E641422002103A872
:10AABC0007F094FB41F61D539C4208BF00243B68F1
:10AACC0004941A78023A042A00F20082DFE812F0A9
:10AADC00E101ED010F0217021E022EB18A4B00227A
:10AAEC005A604FF40644E0E72B79032B1CD8DFE8BF
:10AAFC0003F014022A35854A1378022B1AD0137DE1
:10AB0C00022B4FF0010317D114214B43D118002015
:10AB1C00D0544868FFF738FE03E001232B71FFF790
:10AB2C001FFE002800F0BE80774B00225A6048F2CE
:10AB3C000D64BAE70023E7E7734A137000235360F0
:10AB4C0041F61D54B1E772497248002302222B7161
:10AB5C008A800968012201F04FF9E2E76C4C00266B
:10AB6C002E712068FFF710FE6B4B68495B882568D7
:10AB7C0014225343CA18CE54D2F804C05560A58889
:10AB8C0015810222C4F800C0A280CAE7B5F814A04F
:10AB9C00AA7DDFF87891AEB1022AEB8806D9142190
:10ABAC0001FB0A91DA1C088902440A81142202FB77
:10ABBC000A99C3F57F43B9F80A20FD331344A9F869
:10ABCC000A308EE7142303FB0A9318895C6804EBA4
:10ABDC008004062A69D8DFE802F0274E36441D5A55
:10ABEC00040041F61D54AA7DEB88022A06D91421D3
:10ABFC0001FB0A91DA1C088902440A81142202FB27
:10AC0C000A99C3F57F43B9F80A20FD331344A9F818
:10AC1C000A304AE74148424900234360AB6903606C
:10AC2C00FFF77EFE00285BD00223AB750023009358
:10AC3C000423EA182146374801F044F8002831D0A3
:10AC4C0048F20D64CFE72B69002B14BF03230123BB
:10AC5C00AB750023009305F10C02042304F10801E9
:10AC6C00E9E70123AB750022EB8800922A699B006F
:10AC7C0004F10C01DFE703290CBF05230623AB7598
:10AC8C0000230093042305F10802E118D3E70623FF
:10AC9C00AB75234B1988214B5868FFF785FD04468B
:10ACAC000028A0D108B0BDE8F08748F20E649AE7FE
:10ACBC00002E7FF416AF2B79012B33D0022B3FF4EF
:10ACCC003FAF002B7FF4EFAE02232B710DF10A0185
:10ACDC00EB68039303A8CDE90466FFF721FE10B9D6
:10ACEC0048F20964E1E60498BDF80A108388EB8009
:10ACFC0003882B81FFF758FD044628E088210020AB
:10AD0C008021002040220020682100208C2100207E
:10AD1C0054220020401A0020702100204C210020D9
:10AD2C0060220020DFF8EC9103AA4B463146A81DA7
:10AD3C00FFF748FE044670B9B9F804100498FFF701
:10AD4C0033FD044648F209639C423FF4F9AE002CF3
:10AD5C007FF4ABAEA6E7C9E90066F3E7002E7FF4FB
:10AD6C00C0AE6D4B1A7BBAB11E731A78013A062A23
:10AD7C003FF699AE01A151F822F000BF33AE0100AD
:10AD8C0059AE010077AE01007DAE0100B3AA0100FF
:10AD9C0083AE010095AE01001A78072AE5D801A10F
:10ADAC0051F822F0D1AD010077AD010077AD010073
:10ADBC00F7AD01000BAE01002FAE01002FAE01006C
:10ADCC00F3AD01001A89554901321A8100225A80CB
:10ADDC001A730A78B2FA82F252099A720A7DB2FA9E
:10ADEC0082F25209DA72012207E04D4958688A88CA
:10ADFC004088033202448A8002221A70B5E75C88CC
:10AE0C00464A4749142505FB0422086854685060DB
:10AE1C008888108102200C60888000211174062221
:10AE2C00EBE70722E9E79A7A32B9DA7A8AB9002293
:10AE3C001A705A805A6083E6384900229A72CA689E
:10AE4C00002AF2D1097C0029EFD05A80FFF7FEFDD1
:10AE5C0052E70022DA72314A116A0029E7D192F8DE
:10AE6C002420002AE3D00122EFE7FFF7B9FC43E7E7
:10AE7C00FFF756FC40E75A88284B142101FB02339C
:10AE8C005868FFF781FC37E700225A60FFF768FC2F
:10AE9C0032E701228DF80C201A89ADF818209A8817
:10AEAC00DB68ADF81A20059310E002228DF80C2017
:10AEBC001A89ADF818209A88ADF81A20DA689B7DAB
:10AECC0005929A1F534253418DF81C3003A8FFF78B
:10AEDC00D1FB0026414613483E6000F0C9FB1248E6
:10AEEC00012100F07FFC00287FF4C9ADDAE60322D3
:10AEFC008DF80C20DA88ADF818201A89D0E70422D6
:10AF0C008DF80C20DB88ADF81830DFE705238DF8C1
:10AF1C000C30DBE764220020702100208C21002003
:10AF2C005422002040220020502200204068FFF7CD
:10AF3C009FBD000008B50548012100F03BFC18B985
:10AF4C00BDE80840FFF794BD08BD00BF50220020AB
:10AF5C002DE9F3419846374B1B7806460D46002BDE
:10AF6C005CD000295DD009884FF6FF7399425BD005
:10AF7C006B88002B58D06B689B0758D14AB92F8926
:10AF8C000DF102013846FFF79BFB30B102B0BDE872
:10AF9C00F08113885788ADF8023001A8FFF73CFC0C
:10AFAC00044660B9BDF80220234B142101FB023387
:10AFBC0058890338C01B588148F20760E6E780F8CF
:10AFCC00008000238375BDF8023083826B680361B7
:10AFDC0001211A4800F0FAFB2B882381B8F1030FEA
:10AFEC006B88A38004BF0423A3754FF0000508BF32
:10AFFC003368E06008BFA3611148E780658101A94F
:10B00C0000F0FBFA36B1E36833600E4B75601B89B8
:10B01C00B5723381FFF78EFF0020B7E748F201606D
:10B02C00B4E748F20460B1E748F20360AEE748F2D7
:10B03C000260ABE7682100208C21002084210020D5
:10B04C00402200207021002008B503460748026802
:10B05C00042A08D00168064A42F82130012100F088
:10B06C00B5FB002008BD48F20B60FBE75C2200201A
:10B07C00582100202DE9F04F89B01422002103A89B
:10B08C0007F0ACF8794B1B7803F0FF0B3BB103A82E
:10B09C00FFF7F0FA0027384609B0BDE8F08F734B84
:10B0AC00181D00F0ABFB0028F4D1DBF8F83FDFF8FB
:10B0BC00C0A1581C08BF4FF010234FF0805208BF9E
:10B0CC005B691269591C04BF30235343CAF8103012
:10B0DC006849A3F5405300225046CAF80C3000F0E2
:10B0EC00BFFD07460028D6D11C2363496348DFF80F
:10B0FC0090918C2200F022FA0323B8463D4601932E
:10B10C003C46DAF80C6046443046FFF793FB0128C6
:10B11C0062D0032817D000283DD15A494FF0140CA7
:10B12C000CFB04FC01EB0C0201F80C0056600CF15A
:10B13C0010020CF1080C0A4430466144FFF792FBF4
:10B14C0045F0020545E03268531C02D04E4B9A4242
:10B15C0034D1321D06F58051106801302ED10432E5
:10B16C009142F9D1D9F800203AB90222C9F800600D
:10B17C00A9F804204FF0010B0BE014226243414B61
:10B18C00022099189854414A4E6054800134088129
:10B19C00A4B245F0010508F58058B8F5405FB0D170
:10B1AC00019B012B98BF0025EDB2022D03D0062D7B
:10B1BC0032D0002D39D148F20A676CE7019B314936
:10B1CC005A1E93B2142262438818019346600320DE
:10B1DC0088540134A4B2DEE7BBF1000F0DD0294B2B
:10B1EC0014226243991802209854D9F800204A601E
:10B1FC00264A088154800134A4B200222449C9F89B
:10B20C0000603046FFF72EFBB9F80420022A0CBF71
:10B21C00042208221543BEE7144A0123137003A825
:10B22C0000235360FFF726FA35E702A8FFF7F4FA7C
:10B23C00C8B10123013D03700A2D09D8DFE805F0E0
:10B24C0006080608070807080F110F0000230371F2
:10B25C0002A90A4800F0D1F9FFF76CFE1BE70323A3
:10B26C00F5E70223F3E748F2076714E768210020AB
:10B27C00401A002008280200B4210020402200209F
:10B28C00542200208C210020DEC0ADDE7021002075
:10B29C005822002073B50D460446C8B1C1B10DF15A
:10B2AC000601FFF73DFBB0B1BDF806300B486668F0
:10B2BC00142202FB030001210C3000F087FA6368B2
:10B2CC002E600C336B600123A372002002B070BDA2
:10B2DC0048F20460FAE748F20960F7E78C21002095
:10B2EC0013B50446A8B10DF10601FFF719FB98B18F
:10B2FC00BDF806200B4B142101FB0233DA6872B146
:10B30C00A27A62B1DA680020013ADA60A07202B067
:10B31C0010BD48F20460FAE748F20960F7E748F21A
:10B32C000560F4E78C21002002230022FFF710BEF9
:10B33C0018B103230022FFF70BBE48F204607047DC
:10B34C00114B1B7813B50446ABB14FF6FF73984203
:10B35C0014D001A8FFF760FA98B1052303700123FC
:10B36C000371C48001A9094800F047F9FFF7E2FD19
:10B37C00002002B010BD48F20160FAE748F2036009
:10B38C00F7E748F20760F4E768210020402200202C
:10B39C000F4B1B7807B5A3B101A8FFF73DFA98B185
:10B3AC000623037001A90B4800F027F90A4B1A7801
:10B3BC000AB101221A73FFF7BDFD002003B05DF83E
:10B3CC0004FB48F20160F9E748F20760F6E700BFBA
:10B3DC0068210020402200207021002007B5ADF824
:10B3EC000600ADF804100DF1060001A9FFF7EAFA0A
:10B3FC0003B05DF804FB07B51346ADF806000A462A
:10B40C0000200DF10601FFF7DDFA03B05DF804FB37
:10B41C0007B51346ADF806000A460DF106000021EB
:10B42C00FFF7D0FA03B05DF804FB20B119B1036843
:10B43C000B600020704748F2046070472DE9F84F0C
:10B44C003C4B1B780446002B6DD000286ED0DFF8E7
:10B45C00E8901222002106F0C1FE032323804FF056
:10B46C00000A4F4614264FF00108D9F80410B9F819
:10B47C000AB0B9F808500846FFF7DCF9032808BFF2
:10B48C002388628804BF03F1FF33238006FB0A7311
:10B49C005D44DB681344638023899B446389A4F86F
:10B4AC0008B0ADB22B446381C5F58065A389ADB2FC
:10B4BC00AB4238BFA58101F1080501F58051A942C5
:10B4CC0029D92B68013326D02846FFF7E3F8012849
:10B4DC000AD0022815D00028F1D1A3880133A3800B
:10B4EC000AE04FF0010AC0E7E3880133E380E38907
:10B4FC006A8803331344E3816B88033305EB8305BC
:10B50C00DDE7E38884F810804D1BE189013301EB02
:10B51C00A501E380E18109F11409BAF1000FE0D033
:10B52C000020BDE8F88F48F20160FAE748F20460A9
:10B53C00F7E700BF682100208C21002030B50546BC
:10B54C0059B1B2FBF3F403FB1424A0B238B9C5E92A
:10B55C000010A860AA81EB8130BD0E20FCE7092009
:10B56C00FAE782B050E8022FC188B2EB324F4FF0AD
:10B57C00000317BF92B241EA014142EA014104E0E3
:10B58C004268B2EB324F08BF012340E80212002A96
:10B59C00E8D18DF807309DF80730002B0CBF112037
:10B5AC00002002B0704737B550E8013F9DB2C48906
:10B5BC0025448489A54228BF2D1B0489A54202BFBE
:10B5CC00BFF32F8F002207E0C5EA030540E80154C2
:10B5DC00002CE9D14FF001028DF803200193019A60
:10B5EC000A609DF8031001F0FF0321B1006810FA06
:10B5FC0082F003B030BD1846FBE70A884B889A42AC
:10B60C0009D150E8012FC2EA024240E80123002B85
:10B61C00F7D1012070470020704737B550E8023F42
:10B62C001FFAA3F5C488A54202BFBFF32F8F0022D7
:10B63C000DE0C48925448489A54228BF2D1BC3EA8B
:10B64C00054540E80254002CE8D14FF001028DF87A
:10B65C0003200193019A0A609DF8031001F0FF0387
:10B66C0021B1006800EB124003B030BD1846FBE777
:10B67C000A884B889A4209D150E8022FC2EA22422A
:10B68C0040E80223002BF7D10120704700207047BF
:10B69C0001F01F024B090121914000EB830000F0E7
:10B6AC0065B84B0910B501F01F040121A14000EB56
:10B6BC00830000F04FF8E04000F0010010BD01F0F5
:10B6CC001F0301229A404B0900EB8300D14300F089
:10B6DC0065B84B0901F01F0150F82300C84000F079
:10B6EC00010070472DE9F0474F1E7F0980460E463A
:10B6FC000137002558F8254008EB8509E44394FAF6
:10B70C00A4F4B4FA84F44FEA451A202C06D101357E
:10B71C00AF42EFD834462046BDE8F0875444A642E9
:10B72C00F5D921464046FFF7BCFF0028F3D0D9F8E5
:10B73C000040E44394FAA4F4B4FA84F4E5E710B5B9
:10B74C00034653E8000F0A4643E8002494F0000F28
:10B75C00F7D110BD10B5034653E8000F40EA0102C3
:10B76C0043E8002494F0000FF6D110BD10B5034649
:10B77C0053E8002F42EA010043E8000494F0000F64
:10B78C00F6D110BD10B5034653E8000F00EA0102D4
:10B79C0043E8002494F0000FF6D110BD10B5034619
:10B7AC0053E8002F02EA010043E8000494F0000F74
:10B7BC00F6D110BD10B5034653E8000F00EB0102A3
:10B7CC0043E8002494F0000FF6D110BD10B50346E9
:10B7DC0053E8002F02EB010043E8000494F0000F43
:10B7EC00F6D110BD10B5034653E8002FA2EB0100B3
:10B7FC0043E8000494F0000FF6D110BD0121FFF7CF
:10B80C00A9BF0121FFF7B2BF0021FFF7BBBF10B5E5
:10B81C0090B1D0E9012301689B1ADBB20A60013BAD
:10B82C00DBB2FF2B026802D10020107110BD116831
:10B83C004C1C14600B70F2E70E20F7E737B5054689
:10B84C0000240DF107008DF80740FEF79DFD2A68D6
:10B85C006B68116899420ED9481E106011F8013CB2
:10B86C00EC68298A01FB0344AB6811791B1ADBB223
:10B87C00994238BF13719DF80700FEF7A9FD2046C9
:10B88C0003B030BD37B5054600230DF107000C465B
:10B89C008DF80730FEF778FD2A681368591C116083
:10B8AC00E968641A298AB4FBF1F41C709DF807004E
:10B8BC00FEF78EFD03B030BD826810B504462AB188
:10B8CC0043690168006998470023A36010BD0EB45A
:10B8DC0003B5039921B104AB01AA019300F076F8EA
:10B8EC0002B05DF804EB03B070470A2938B5044682
:10B8FC000D4602D10D21FFF7F8FFA3682268591CF1
:10B90C00A160D554D4E901329A4204D32046BDE853
:10B91C003840FFF7D1BF38BD2DE9F84F9846DDE927
:10B92C000A43154682460F460A464FF00109AA42C1
:10B93C000FD2C14538BFC14613F0010B01D16CB910
:10B94C0000240126B8F1010F1BD908F1FF386E4312
:10B95C00F8E709F10109B2FBF5F2E8E79B070ED510
:10B96C00B8F1000F0CBF30262026A145E9D2013CCE
:10B97C0031465046FFF7B9FF002CF6D1E0E7202600
:10B98C00F3E7B7FBF6F39D42E1D9DFF83C80B7FB58
:10B99C00F6F3504618F8031006FB1377FFF7A5FFD4
:10B9AC003346AB42B6FBF5F6F1D2BBF1000F02D039
:10B9BC000CB1A14501D3BDE8F88F20215046013CC4
:10B9CC00FFF793FFF4E700BF1C2602002DE9F74FA9
:10B9DC00054617468846002900F03E8118F8011BE1
:10B9EC0049B92B7B002B00F03781284603B0BDE80A
:10B9FC00F04FFFF761BF252940F0B780002698F87B
:10BA0C0000302D2B424608F1010823D0302B24D0D6
:10BA1C002B2B25D000242A2B02F1010123D13B68CA
:10BA2C001A1D1B683A601C440A4613782E2B26D12B
:10BA3C0001324FF0000A104610F8011BA1F1300C36
:10BA4C00BCF1090F1DD80A2303FB0A13A3F1300A1A
:10BA5C000246F0E746F00106D1E746F00206CEE7D3
:10BA6C0046F00406CBE711F8013CA3F1300009289D
:10BA7C00DBD80A2202FB0434303C0A46CBE74FF0F9
:10BA8C00000A12F8011B01F0FB0068289046F8D060
:10BA9C00782909D86F290CD8632962D022D8252996
:10BAAC0063D0582900F0888098F80030002B95D18D
:10BABC0097E770390829F7D801A353F821F000BF94
:10BACC003FBC0100B5BA0100B5BA0100D5BB0100FD
:10BADC00B5BA0100B3BB0100B5BA0100B5BA01009B
:10BAEC00C5BB0100642901D06929DDD13A68D2F8BF
:10BAFC000090111D89EAE9723960A2EBE9724FF0EE
:10BB0C00010B092A35DCD34538BFD3462CB1B9F12A
:10BB1C00000F01DB720700D5013CB30702D5BAF167
:10BB2C00000F03D0F00701D44CBB0024B9F1000F77
:10BB3C002DDAC9F100092D212846FFF7D6FE06F0B3
:10BB4C000302022A04D1BAF1000F01D11CBB00245C
:10BB5C00CDE9004653460A2249462846FFF7DCFE4B
:10BB6C00A2E73B681A1D19783A602846FFF7BDFE1C
:10BB7C009AE70A230BF1010BB2FBF3F2C1E7A345E1
:10BB8C00D4D220212846013CFFF7AFFECCE7710749
:10BB9C00D5D52B21D0E7A345DAD230212846013C5C
:10BBAC00FFF7A3FED2E73968CDE900460A1D3A60DB
:10BBBC0053460A220968D0E739680A1D3A60CDE974
:10BBCC00004653461022F5E73B681A1D3A6016F002
:10BBDC000106D3F8009024D1B9F1000F03D04846E8
:10BBEC0006F051FB0646B4421DD809F1FF3919F88D
:10BBFC00011F00293FF458AF2846FFF776FEF6E701
:10BC0C0028460136FFF771FE19F806100029F7D106
:10BC1C00A642BFF449AF20212846013CFFF765FE40
:10BC2C00F6E70026F0E720212846013CFFF75DFEF1
:10BC3C00D9E73B681A1D3A60302128461C68FFF78B
:10BC4C0054FE78212846FFF750FE00220823CDE948
:10BC5C0000322146102280E703B0BDE8F08F00BF10
:10BC6C0013B50B46114680B9104B1148114AC01A36
:10BC7C000E23C0080093104B0004104940F0010043
:10BC8C00FDF7BBFE0E2002B010BD4BB9074B0848A8
:10BC9C000B4AC01AC0080E2300930004064BECE7B5
:10BCAC0003601B6802B0BDE81040184780230200F7
:10BCBC00D02302002C260200E827020031260200C5
:10BCCC00602602002DE9F743DDF8288088B93E4B49
:10BCDC003E483F4AC01AC0080E243E4B0094000454
:10BCEC003D4940F00100FDF788FE204603B0BDE859
:10BCFC00F0834AB9344B3548384AC01AC0080E2470
:10BD0C00344B00940004EBE7D0F800E0BEF1000FD8
:10BD1C0009D12D4B2D48324AC01AC00808242D4B8E
:10BD2C0000940004DCE74BB9274B28482D4AC01A75
:10BD3C00C0080924274B00940004D1E74768D7F8C2
:10BD4C000490B3FBF9F709FB17374FB11E4B1F4893
:10BD5C00254AC01AC00809241E4B00940004BFE7F2
:10BD6C008F0709D0184B1948204AC01AC008102454
:10BD7C00184B00940004B3E712F0030F09D0124BD8
:10BD8C0012481B4AC01AC0081024124B009400041D
:10BD9C00A6E7C768B9420DD305694C1E1C44AC42DA
:10BDAC0008D8CDF82880DEF80C40A44603B0BDE8D6
:10BDBC00F0436047044B05480E4AC01AC0081024D3
:10BDCC00044B009400048BE780230200D023020074
:10BDDC002C260200D527020031260200AE260200D6
:10BDEC005A2602006D260200B4260200DE2602004E
:10BDFC00F626020019270200F7B580B92A4B2B480A
:10BE0C002B4AC01AC0080E242A4B009400042A495D
:10BE1C0040F00100FDF7F1FD204603B0F0BDD0F875
:10BE2C0000C0BCF1000F09D11F4B2048234AC01A97
:10BE3C00C00808241F4B00940004E8E74AB91A4BC9
:10BE4C001A481F4AC01AC00809241A4B009400044F
:10BE5C00DDE74768D7F800E00EF1FF370F4209D055
:10BE6C00114B1248174AC01AC0081024114B0094E9
:10BE7C000004CCE7C768B9420CD305694C1E0EFB15
:10BE8C000244AC4206D8DCF81040A44603B0BDE82E
:10BE9C00F0406047044B05480B4AC01AC0081024F8
:10BEAC00044B00940004B2E780230200D02302006C
:10BEBC002C260200C2270200312602005A2602005C
:10BECC006D260200402702006627020029DF70471A
:10BEDC0028DF704770B503689E6886B004460D462F
:10BEEC006EB114220021684606F078F9A368059318
:10BEFC00237901952BB1012B0DD06846B04706B0C4
:10BF0C0070BD01238DF8003023690293E36803931D
:10BF1C0063690493F1E702238DF80030E3681B0397
:10BF2C000293F5E70846704700207047024B187AD9
:10BF3C00003818BF0120704708230020034B187AE3
:10BF4C000122B0FA80F05A7440097047082300208F
:10BF5C0008B510461A4606F018F9002008BD000076
:10BF6C0008B514220021044806F038F90348FFF7FD
:10BF7C00F8FA002008BD00BF08230020F82200209A
:10BF8C0010B5094C094B43602046FFF737FC40B90C
:10BF9C0005F0A2FE064920741C2306488C22FFF7EC
:10BFAC00CDFA002010BD00BF08230020FC270200A2
:10BFBC006C220020F822002038B5234D234C2B7A1C
:10BFCC003BB923492348FFF728FB206008B9686078
:10BFDC0038BD022324682B72237973B1012B24D032
:10BFEC0020460321FFF776FF00232B726B60184964
:10BFFC001848BDE83840FFF73BBBD4E90523D21AFB
:10C00C00B2F5805FD4E9031028BF4FF48052920838
:10C01C00012A38BF012219441844FFF757FF50B1C9
:10C02C001128DDD101232B72D2E7D4E90303184484
:10C03C00FFF74EFFF3E72B7C002BC9D1BDE838404E
:10C04C00022000F009B800BF0823002020230020A4
:10C05C001C230020F822002038B5234C237A002B17
:10C06C0041D0022B09D1032830D0204B00221B6871
:10C07C00E2601A793AB1012A22D0637C7BBBBDE81D
:10C08C003840FFF799BFD3E905128D1AB5F5805FDB
:10C09C0094BF521902F580529A619142EDD1022857
:10C0AC004FF0000308BF19462372104B18BF0D2127
:10C0BC001868FFF70FFF0E490E48FFF7D9FADCE7B7
:10C0CC001A6901321A615B699A42E7E7E368013346
:10C0DC00082B01D8E360D0E70023E360DFE7BDE87D
:10C0EC00384005F0E9BD38BD08230020202300208E
:10C0FC001C230020F8220020831E012B01D8FFF7FF
:10C10C00ABBF704700F0FD03012B08D1044B00229C
:10C11C005A74421E504250411874FFF74DBF70477D
:10C12C000823002010B5064C201DFFF767FB28B92B
:10C13C00637C1BB9BDE81040FFF73EBF10BD00BFCC
:10C14C00082300202DE9F34180460D46104801A933
:10C15C0016461F46FFF727FA0446B0B118220021F5
:10C16C00043006F03BF82D0B0123237101A908487C
:10C17C00C4F80080A760E5606661FFF73EFAFFF740
:10C18C00D1FF002002B0BDE8F0810420FAE700BF27
:10C19C00F82200202DE9F34180460F460F4801A9F3
:10C1AC0016461D46FFF7FFF90446A8B118220021D8
:10C1BC00043006F013F8089BA36001A9C4E90367D7
:10C1CC000648C4F800806561FFF717FAFFF7AAFF6D
:10C1DC00002002B0BDE8F0810420FAE7F82200202C
:10C1EC002DE9F84FB0F806A04579D2F800B09DF8CB
:10C1FC0028900AFB05F5043D88460BEB0301A94288
:10C20C0003F1040488BFA5EB030BB4FBFAF6074655
:10C21C000AFB1644C2F800B04EB9AAEB04055D4502
:10C22C0028BF5D46BBF1000F04D1BDE8F88F3F6815
:10C23C00013EF1E7043408EB06003C442A46B9F110
:10C24C00000F0DD02146ABEB050B05F09EFFDA4538
:10C25C002E443F6855464FF0000428BF5D46E1E789
:10C26C0001462046EFE7FFF7D2BAF8B5467901460A
:10C27C00721E0546002393422D6803D30024A64268
:10C28C0002D8F8BD0133F6E70F682846FFF7FAFA33
:10C29C0001343946F3E72DE9F843068ACD1C0746ED
:10C2AC00FFF7CCFA043E35440446B5FBF6F5F0B185
:10C2BC004FF48073EDB28380C680013D07608146E8
:10C2CC004FF00008A84512D23846FFF7B7FA0646D9
:10C2DC0048B163790133637108F10108C9F80000B2
:10C2EC0007608146EEE72046FFF7BFFF3446204645
:10C2FC00BDE8F88301210430FFF768BA10B50121BD
:10C30C0004460430FFF76EFAC0B220B92046BDE8EF
:10C31C001040FFF7AABF10BD1FB503920022009278
:10C32C0003AAFFF75DFF05B05DF804FB1FB5039290
:10C33C000122009203AAFFF753FF05B05DF804FB3E
:10C34C0041DF7047064B10B500241C70054B1C6078
:10C35C00BFF35F8F0449054800F01FF8204610BD5D
:10C36C002C2300203023002034280200242300201A
:10C37C0008B505F0B1FC18B1BDE80840FFF7E0BF07
:10C38C0020BF40BF20BF08BD836800225A60C3E9AC
:10C39C0004229A60DA601A6070470B684A6843603E
:10C3AC00934208BF0023016008BF43607047436895
:10C3BC0043B10268916852680B449342436004BFD6
:10C3CC0000234360704770B5446806460D462068EC
:10C3DC0018B1B3682946984718B923682B602560B3
:10C3EC0070BD2468F3E74368186808B102681A60E6
:10C3FC0070474368186870474368186800B97047FD
:10C40C00884203D102681A60012070470346006815
:10C41C00F4E7000010B50D49A1F59472914201D8D2
:10C42C0000200FE08C1AE30F03EBE4035B1002EB2C
:10C43C00C30452F83330834205D802D204F1080207
:10C44C00ECE7606810BD2146E8E700BF402D020014
:10C45C0008B5FFF7DFFF024B002808BF184608BDE0
:10C46C00032C0200BFF34F8F0549064BCA6802F438
:10C47C00E0621343CB60BFF34F8F00BFFDE700BFFB
:10C48C0000ED00E00400FA054FF08053D3F83001C2
:10C49C00421C04BF4FF0704393F8E00F831F5842C7
:10C4AC00584170474FF0704393F8E02F062A09D19A
:10C4BC00D3F8E83FC3F30313033B032B02D8024A20
:10C4CC00D05C704700207047482D02004FF080531D
:10C4DC00D3F83001421C04BF4FF0704393F8E00FC7
:10C4EC00062804D0A0F10A03584258417047012095
:10C4FC007047000008B5FFF7C7FF40B14FF08053FD
:10C50C00A44AD3F82433C3F30423C2F84035FFF70D
:10C51C00C9FF10B1A04BA14A5A67FFF7D7FF48B12A
:10C52C004FF080534FF08042D3F84432C3F3423380
:10C53C00C2F83C35FFF7B6FF30B1994AD2F8FC305F
:10C54C0023F08073C2F8FC30FFF7C0FF40B14FF00E
:10C55C0080430022C3F80C21C3F81021C3F83825FE
:10C56C00FFF7A0FF20B14FF080430322C3F8A025B2
:10C57C00FFF798FF60B18B4B0522C3F81026012200
:10C58C00C3F888260022C3F818263F22C3F81426C5
:10C59C004FF08053D3F83021501C09BF4FF070433B
:10C5AC00D3F8343193F8E02FD3F8E83F08BFC3F346
:10C5BC000313062A4ED1033B032B03D87A4AD35CD0
:10C5CC00002B49D04FF08052784BD2F80414C3F8AA
:10C5DC002015D2F80814C3F82415D2F80C14C3F89B
:10C5EC002815D2F81014C3F82C15D2F81414C3F86B
:10C5FC003015D2F81814C3F83415D2F81C14C3F83B
:10C60C004015D2F82014C3F84415D2F82414C3F8FA
:10C61C004815D2F82814C3F84C15D2F82C14C3F8CA
:10C62C005015D2F83014C3F85415D2F83414C3F89A
:10C63C006015D2F83814C3F86415D2F83C14C3F85A
:10C64C006815D2F84014C3F86C15D2F84424C3F81A
:10C65C00702501E00A2AB5D0FFF716FF48B14FF05C
:10C66C0080534FF08042D3F8583203F04F03C2F896
:10C67C00E43EFFF72BFF48B14FF08043D3F8002482
:10C68C00D10744BF6FF00102C3F800244FF0805370
:10C69C00D3F83021062A0ED1D3F83431033B032BC7
:10C6AC0002D8434AD35CBBB1424AD2F83C3743F47C
:10C6BC008063C2F83C374FF08053D3F830210A2AFC
:10C6CC000AD1D3F834313BB14FF08042D2F8E43E7A
:10C6DC0043F00F03C2F8E43E4FF01023D3F80022CE
:10C6EC00002A03DBD3F80422002A23DA324B01227E
:10C6FC00C3F80425D3F80024002AFBD04FF01022F5
:10C70C001521C2F80012D3F80024002AFBD04FF0F8
:10C71C0010231522C3F80422274BD3F80024002A37
:10C72C00FBD00022C3F80425D3F80024002AFBD048
:10C73C00FFF798FED3F80022D20703D4D3F80432C3
:10C74C00DB0722D51C4B0122C3F80425D3F80024A7
:10C75C00002AFBD04FF010220021C2F80012D3F8AF
:10C76C000024002AFBD04FF010230022C3F804222F
:10C77C00114BD3F80024002AFBD00022C3F8042567
:10C78C00D3F80024002AFBD0D2E70C4B0C4A1A60D9
:10C79C0008BD00BF0030014000C007400DF0ADBA2D
:10C7AC0000ED00E000500040402D020000C00040B1
:10C7BC00442D02000010004000E00140641A0020EB
:10C7CC000090D003054A4FF0A043105CD3F8043519
:10C7DC0023FA00F0C04300F001007047502D020016
:10C7EC00044B1A5C012393404FF0A042C2F80C3565
:10C7FC00704700BF502D0200044B1A5C012393407C
:10C80C004FF0A042C2F80835704700BF502D02000F
:10C81C0008B50020FFF7F0FF0120FFF7EDFF022025
:10C82C00FFF7EAFFBDE808400320FFF7E5BF08B5B6
:10C83C000020FFF7D5FF0120FFF7D2FF0220FFF702
:10C84C00CFFFBDE808400320FFF7CABF074A4FF0EF
:10C85C00A041105CD1F804350122824022EA030089
:10C86C001340C1F80805C1F80C357047502D020073
:10C87C00054A4FF0A043105CD3F8103523FA00F0B2
:10C88C00C04300F0010070474C2D02000D2809D068
:10C89C000E2809D00F2809D010280CBF03204FF008
:10C8AC00FF3070470020704701207047022070470E
:10C8BC00014B185C704700BF4C2D0200C20708B535
:10C8CC0001460CD54FF0A0430322C3F84427C3F80C
:10C8DC004827C3F84C27C3F85027FFF799FF8B075D
:10C8EC000AD54FF0A0430C22C3F83427C3F83827DD
:10C8FC00C3F83C27C3F8402708BD000038B5074CE7
:10C90C00051E04F1080318BF1C4623682BB11A68D6
:10C91C0022605B6828469847F7E738BD3C23002027
:10C92C0020B9054B01225A70FFF7E8BF012802D14C
:10C93C00014A9070F8E770473423002020B9034B6C
:10C94C0001225A70FFF7DABF704700BF3423002072
:10C95C0038B50E4C2378B3B90D486360A3602361DE
:10C96C00E36000F075F8054605F0B6F908B900F07B
:10C97C007BF801232370074BD3F800340BB1012350
:10C98C00A370284638BD8525F5E700BF3423002069
:10C99C002DC901000000014037B50D4C00230DF1ED
:10C9AC0007008DF80730FDF7EFFCE368013BE3600F
:10C9BC00E36833B9074BD3F8005415B900F066F8A7
:10C9CC00A5709DF80700FDF703FD03B030BD00BF57
:10C9DC003423002000000140012813B50CD003289B
:10C9EC0020D038B9134B0122C3F88020BFF34F8FEE
:10C9FC00BFF36F8F02B010BD0F4C00230DF1070079
:10CA0C008DF80730FDF7C0FC23780BB9FFF7A0FFBA
:10CA1C00E3689DF807000133E3600123A370FDF781
:10CA2C00D7FCE7E700F020F802B0BDE81040FFF7B4
:10CA3C00B3BF00BF00E100E03423002000F18040D0
:10CA4C00002382B0036003680193019B02B070471E
:10CA5C00044B0246187918B91A6001229A80704763
:10CA6C008520704748230020074B1A68D20704D44E
:10CA7C00C02283F8002301221A604FF08043012268
:10CA8C00C3F81825704700BF00E100E04FF080426A
:10CA9C0008B50223C2F808334FF48270FFF7CEFFBB
:10CAAC000123D360D2F81834DB03FBD408BD00009B
:10CABC004FF0804110B5D1F8003163B14FF4807064
:10CACC00FFF7BCFF0D4B58790122C1F8082310B9B0
:10CADC005A711B6898474FF08042D2F8043163B109
:10CAEC004FF48270FFF7AAFF0223C2F80833034BFE
:10CAFC00BDE810401B680120184710BD48230020DA
:10CB0C0000F1804000F5C040002382B00360036850
:10CB1C000193019B02B07047800000F1A040D0F857
:10CB2C00002722F44032C0F80027D0F8003743EA3F
:10CB3C000143C0F800377047054B4FF0FF32072810
:10CB4C0043F8202084BFC01880F84820704700BFED
:10CB5C005023002010B5184991F8583053BB4FF0B2
:10CB6C00FF3222FA03F0C00748BFC81803F10103D3
:10CB7C0048BF80F83020202BF3D10024E0B20134E0
:10CB8C00FFF7DAFF0C2CF9D10C4B0022C0204A65C0
:10CB9C0083F80603402018604FF4BE70FFF7B0FF17
:10CBAC00074B4FF00040C3F80403012381F85830C1
:10CBBC00104610BD0820FCE75023002000E100E0E7
:10CBCC0000600040034B93F85800003818BF012058
:10CBDC00704700BF50230020F0B5394E331893F93D
:10CBEC003030002B69DA8D78C5F34005002D0BBF72
:10CBFC00082300230C240824A34201D10420F0BDF7
:10CC0C0056F82370013743D137185CB246F823200D
:10CC1C0087F8304015B9F21882F848008A78550721
:10CC2C0016D4D70736D5820002F1A042D2F80057AD
:10CC3C0025F00205C2F80057224FC50800F0070C7A
:10CC4C00012202FA0CF217F805C042EA0C027A55DE
:10CC5C008A780D7812F0020225D09B0003F18043F4
:10CC6C0003F5C0430002D3F8102522F4473222F416
:10CC7C004072C3F810252D04D3F8102500F4F85099
:10CC8C0005F4403528431043C3F810050020B6E7DF
:10CC9C000133B1E74D7800F5E0724FF0A047AD00DD
:10CCAC0047F82250C8E7083C46FA84F494F8500040
:10CCBC0040EA851584F85050E8E708209FE700BF4C
:10CCCC0050230020A423002038B5204C251895F9BA
:10CCDC003020072A18DD083A44FA82F494F85030D0
:10CCEC009B09032B0BD14FF0A043D3F81015C14077
:10CCFC0001F001010231BDE83840FFF70DBF012BF7
:10CD0C000CBF02210321F6E7D3B2072B1DD89300E9
:10CD1C0003F1804303F5C043D3F8100540F0010044
:10CD2C00C3F8100502F1400040B2800080B2FFF75A
:10CD3C00E7FE51B195F9303054F823302BB1012373
:10CD4C0003FA02F2024BC3F8042338BD502300202F
:10CD5C00006000404FF0A043D3F8103523FA00F0E8
:10CD6C0000F00100704700002DE9F74F00244E4DF4
:10CD7C0001944FF48072012102F1804303F5C0430A
:10CD8C0090B21B68012B06D1D5F804330B4202D0AC
:10CD9C00FFF7B6FE0C430432B2F5907F4FEA410127
:10CDAC00EAD1414BD3F87C31012B0CD14FF4BE703E
:10CDBC00FFF7A6FE4FF0A04344F00044D3F8202523
:10CDCC000192C3F82025E3B2D3B1384F00250126D8
:10CDDC00344210D0AB0003F1804303F5C043D3F8C9
:10CDEC001005D3F8101557F8253023B1C1F30141C4
:10CDFC00C0F3042098470135082D4FEA4606E7D1C9
:10CE0C00002C48DA294D4FF0A048294E4FF000096C
:10CE1C00012716F9013B5A1C31D0C3F3C20202A9F7
:10CE2C000A44DCB212F8042C03F03F0A03F00703A7
:10CE3C0007FA03F31A4222D00AF5E073504658F869
:10CE4C002330C3F3014BBBF1020F0CBF03210221B2
:10CE5C00FFF762FE07FA0AF3C8F8203505EB0A0360
:10CE6C0093F9303055F823304BB1A109032904D084
:10CE7C00BBF1020F12D1012901D15046984709F19B
:10CE8C000109B9F1040FC4D1D8F820350193C8F8C1
:10CE9C002035002BB9D103B0BDE8F08FBBF1030FE7
:10CEAC00EDD10229E8E700BF0060004050230020CC
:10CEBC00A0230020014B1B68184700BFAC230020A7
:10CECC000220FFF7C3BC00002DE9F04780460D4659
:10CEDC00FFF7DCFC0328044610D8012D10D0022DDE
:10CEEC0030D05DB91A48FDF77AF91A4B04EB4402BD
:10CEFC0013449D78184B1B5DAB4219D0BDE8F087ED
:10CF0C00144E00EB4003F218F55C5378470053B114
:10CF1C00DFF848900E484A464FF48041FDF747F938
:10CF2C0008B989F8008027443E440B4BB2781A5557
:10CF3C00002DE3D00A4B1B68002BDFD02846BDE840
:10CF4C00F047184700EB4004024804446578EFE7CB
:10CF5C00D82300201824002031240020B4230020E2
:10CF6C002C24002000780221FFF7AEBF08B5094B36
:10CF7C001B7853B10020FFF73FFC0120FFF73CFC6E
:10CF8C00BDE808400320FFF737BCBDE80840FFF7B9
:10CF9C003FBC00BFB5230020F8B57A4C237805467A
:10CFAC001BB100232370FFF7E1FF172D00F28780E0
:10CFBC00DFE805F00C1717425364757F878C878C5C
:10CFCC00949999999999C3C8D0D8E3E3FFF7CEFF08
:10CFDC006D48FDF704F96D4B002204461A7020468B
:10CFEC00F8BD0020FFF7EEFBF0B10020FFF704FCCA
:10CFFC00022D0CBF4FF4E1644FF47A64634B1D7047
:10D00C0000254FF400464FF47A7029464FF4FA622B
:10D01C000023E4FB060104F0BBFF2A460146BDE8F1
:10D02C00F8405948FDF7C3B8FFF7DAFB022D0CBFE7
:10D03C00C8244FF4C874E1E70020FFF7C3FB40B1EC
:10D04C000020FFF7D9FB4FF44874504B03221A70A1
:10D05C00D6E7FFF7C5FBC824F7E70020FFF7B2FBC4
:10D06C0038B10020FFF7C8FB4FF47A64474B042219
:10D07C00EDE7FFF7B5FB4FF4C874F7E70020FFF7B7
:10D08C00A1FB48B10020FFF7B7FB404B05221A70FB
:10D09C0040F6CD410022C2E7FFF7A2FBF5E70020E6
:10D0AC00FFF7D4FB394B06221A70002240F266615E
:10D0BC00B5E70020FFF794FB344B07221A700024CD
:10D0CC008DE701202070FFF7C1FBEEE701202070F7
:10D0DC00FFF7BCFB00224FF40051A0E7FFF7A7FBC2
:10D0EC002A4B0C22EAE72A482A4EFDF778F8D5F1AC
:10D0FC00110504461CD0D8B9012D13D0C8204543C6
:10D10C0021464FF400474FF47A704FF4FA62002333
:10D11C00C5FB070104F03CFF224601461C48FDF705
:10D12C0046F804460220FFF75BFB0123337056E7F9
:10D13C000220FFF761FB0023F8E7FFF717FF134B03
:10D14C001222BBE7FFF712FF0020FFF749FB0F4B42
:10D15C001322B3E7FFF70AFF0120FFF741FB0B4B4C
:10D16C001422ABE7FFF702FF0020FFF739FB012089
:10D17C00FFF736FB054B1522A0E7FFF758FB034BD7
:10D18C001D709CE728240020F82300203024002068
:10D19C00B8230020B5230020044B1B68DB0703D504
:10D1AC00034B1878FFF7F8BE704700BF242400200B
:10D1BC003024002010B5002914BF03240024FFF7ED
:10D1CC0077FB800000F1A040D0F8002722F4403219
:10D1DC00C0F80027D0F8003743EA0443C0F8003702
:10D1EC00002010BD032801D8FFF742BB0020704778
:10D1FC00044B1B6813F0010301D0FFF7CDBE18469A
:10D20C00704700BF2424002038B51C4B18601C4B01
:10D21C0010F00204054619601AD01A4B1A480E2257
:10D22C001A700F22DA7010229A7111225A7204218C
:10D23C0040F23332FCF752FE044648B9FCF7A6FE26
:10D24C00044628B90146114A1148FCF7A5FF0446CB
:10D25C00EB0711D50120FFF731FB6CB921460D4AC4
:10D26C000D48FCF799FF044630B9BDE838400B4A2D
:10D27C000B480121FCF790BF204638BD2424002028
:10D28C002C24002018240020782D020071CF0100DE
:10D29C009C2D0200A5D10100A02D0200CDCE0100D5
:10D2AC00982D0200032811D8012A0AD101290FD187
:10D2BC0000F10E02D2B20D4B00EB40001A540020CC
:10D2CC0070470129F7D0022904D049B107207047D3
:10D2DC000022F8E7054B00EB400018444270EEE7E3
:10D2EC00024B00EB400018448270E8E71824002041
:10D2FC00032802D80121FFF75DBF0620704708B54F
:10D30C00012202210020FFF7CDFF08B1072810D120
:10D31C00072202210120FFF7C5FF08B1072808D119
:10D32C0000210A220846FFF7BDFF10B1072808BFED
:10D33C00002008BD0388102B10B502D0112B1ED075
:10D34C0010BD1A4C2168B1B901220846FFF7AAFF9B
:10D35C0008B1072824D1072202210120FFF7A2FFE0
:10D36C0008B107281CD1042202210020FFF79AFFE4
:10D37C0008B1072814D1236801332360E0E70B4A76
:10D38C001368013B1360002BDAD1FFF7B8FF0028BC
:10D39C00D6D0074B1B68002BD2D0BDE810401847E5
:10D3AC00034B1B68002BE6D09847E4E73C24002095
:10D3BC003824002008B50020FFF79AFF08B1062892
:10D3CC0006D10120FFF794FF10B1062808BF0020FA
:10D3DC0008BD00000D4B10B518600C4629B101209A
:10D3EC00FFF700FF40B102232370094B1B6853B9B0
:10D3FC00BDE81040FFF783BFFFF7F4FE08B10B2325
:10D40C00F2E72070F1E7002010BD00BF38240020A7
:10D41C003C24002076DF70477ADF70477CDF704752
:10D42C008FDF704733DF7047FCF7C6BD08B50020AF
:10D43C00FFF7DEFE08B1FCF7BFFDFFF7BBFF08B13D
:10D44C00FCF7BAFDFFF7EEFF18B1BDE80840FCF79A
:10D45C00B3BD08BD0388212B13B5044639D005D8BC
:10D46C00102B19D0112B0AD002B010BD3B2B01D0C0
:10D47C00562BF9D1A0881321FFF7CCFF22E01C4BCF
:10D48C001C481D49C01AC008000440F0030002B03B
:10D49C00BDE81040FCF79ABA154B16481749C01A4C
:10D4AC00C008000440F00300FCF790FA0720FFF7D7
:10D4BC009FFE08B1FCF780FD114BA1881148198023
:10D4CC0002F010F90028CFD002B0BDE81040FCF7F4
:10D4DC0073BD002380888DF8043001A98DF80530C8
:10D4EC00FFF79EFF0028BFD0FCF766FDBCE700BF2E
:10D4FC0080230200A8230200A42D0200B22D0200FA
:10D50C006C1A00204825002008B503784BB9054B50
:10D51C003B211888FFF77EFF18B1BDE80840FCF7E7
:10D52C004BBD08BD6C1A0020072808B513D00A287B
:10D53C000DD0042819D10D4B13211888FFF76AFF61
:10D54C0030F0080311D0BDE80840FCF735BDBDE84C
:10D55C000840FFF76BBF054B1A884FF6FF739A42D2
:10D56C0003D1034800F037FEEAE708BD6C1A00202F
:10D57C004024002008B598B1032815D10B4B0C485A
:10D58C000C49C01AC008000440F00300FCF71EFA56
:10D59C000220FFF72DFE38B1BDE80840FCF70CBDAA
:10D5AC00BDE80840FFF742BF08BD00BF8023020062
:10D5BC00A8230200BD2D020008B50548032100F088
:10D5CC00D6FC18B1BDE80840FCF7F6BC08BD00BF9E
:10D5DC004024002010B5044603F0A6FB204603F0BF
:10D5EC0085F923780C2B03D1BDE81040FFF7E4BF7D
:10D5FC0010BDFCF7E1BC000000B54FF48041ADB0AC
:10D60C000020FCF749F808B1FCF7D6FCFBF784FFC7
:10D61C00FCF790FD08B1FCF7CFFC6A490320FFF73B
:10D62C00F3FD08B1FCF7C8FC01A90020FFF7D2FEFE
:10D63C0008B1FCF7C1FC9DF80450FEF783FE08B15D
:10D64C00FCF7BAFC04F0CAFA08B1FCF7B5FC0023ED
:10D65C0001A90120019304F08DFB08B1FCF7ACFC8F
:10D66C0001A804F029FC08B1FCF7A6FC11235649CB
:10D67C008DF800300F226846FFF7D0FE08B1FCF79A
:10D68C009BFC0023ADF808305023ADF80430A023E8
:10D69C00ADF8063001A84FF4C873ADF80A30FFF7A7
:10D6AC00BBFE08B1FCF788FC4848002101F03EFFA6
:10D6BC0008B1FCF781FCAC22002101A804F08EFD1E
:10D6CC0002238DF8043040F20163ADF806300123DB
:10D6DC004FF49671ADF814308DF8803044F25063ED
:10D6EC00CDE923133A4A3B4B3B48069201A92A93B6
:10D6FC0000F0CDFB08B1FCF75FFC3748012100F0CE
:10D70C00C3FB364B3648019301A901F0D9FF08B190
:10D71C00FCF752FC1422002101A804F05FFD4FF429
:10D72C00F0234FF4A032CDE9022303238DF81030FF
:10D73C002C4B069301A82C4B079300F06BFE08B101
:10D74C00FCF73AFC02F096FD08B1FCF735FC3123EE
:10D75C008DF8043007238DF8053010238DF8063032
:10D76C0001A803238DF807308DF8083002F01CFE59
:10D77C0008B1FCF721FC1D4802F0FEFD08B1FCF7D6
:10D78C001BFC1B481B4C1C49241AE408240444F0C1
:10D79C0003042046FCF71AF9022D0FD11749204635
:10D7AC00FCF714F902F02CFE08B1FCF705FCFBF7B2
:10D7BC00C3FF0028FBD1FEF7DBFDF8E7FFF7FCFE0B
:10D7CC00F5E700BF35D50100CF2D0200382500202C
:10D7DC00681A002081D501004024002035D40100B6
:10D7EC004825002015D50100FFD50100E1D5010029
:10D7FC0080230200A8230200DF2D0200F92D020075
:10D80C000369C26893429CBF80681B18013B981A3D
:10D81C0070472DE9F843D0E902940546A9EB0408BA
:10D82C004068904520440F46144404D904F0ADFCE4
:10D83C00EC60BDE8F8834246A4EB090404F0A5FCB7
:10D84C006868224607EB0801F0E72DE9F843C56844
:10D85C000646894617464FF000083469B36870686D
:10D86C00A54228BFE418013C621B5C1BBC4228BFCC
:10D87C003C46944228BF144649462844224604F0AC
:10D88C0084FCB3682544AB4208BF00253F1BA04471
:10D89C00A144F560E1D14046BDE8F88310B5114CC8
:10D8AC00114AA2610223C4E90433104BE361A26460
:10D8BC004FF400730E4A0F492362E26400231022D6
:10D8CC00E01DA3626362E362A3656365E3652265A1
:10D8DC0004F0B7FC0849204604F0B3FC2023A371E4
:10D8EC0010BD00BF54250020062E0200DC250020B0
:10D8FC00CC2500200F2E0200132E020070B5164B03
:10D90C00182400FB04451D4404FB00331646DC6A56
:10D91C00012C0ED0022C18D0E4B92846FFF770FF6A
:10D92C00864204D832462846FFF773FF3446204619
:10D93C0070BD2846FFF764FF8642344628BF044674
:10D94C0022462846FFF765FFF1E72846BDE8704000
:10D95C00FFF77BBF0024EAE754250020FFF79EBFAA
:10D96C006DDF704779DF70477DDF704764DF70478C
:10D97C002DE9F04F85B000250E9CBDF83CB0B4F8F5
:10D98C0000A00191074690461E46A9463A884A4592
:10D99C000DDC45B12388013BA3EB0A039BB2FF2BA3
:10D9AC003AD806F80A30002005B0BDE8F08F7A6846
:10D9BC0052F82900039000220DF10B0103A8FFF788
:10D9CC00D5FF0028F0D19DF80B20424521D12288AB
:10D9DC00002D14BF0020022002EB08010144594520
:10D9EC001ADC3DB9013292B2019B2280B3542288D9
:10D9FC000132228022880DF10B01324403A8FFF77B
:10DA0C00B5FF0028D0D121889DF80B200A44228034
:10DA1C00012509F10109B9E70C20C5E72DE9F3410E
:10DA2C00089FBDF824801546CDE9007802220446F3
:10DA3C001E46FFF79DFF50B933461022294620465B
:10DA4C00CDE9087802B0BDE8F041FFF791BF02B014
:10DA5C00BDE8F0812DE9F04F00231788138090F872
:10DA6C002D3085B006460D4614465BB3082F01D801
:10DA7C000C2028E102A8FFF773FF002840F0238157
:10DA8C002388DDF809100822EA54238801339BB25D
:10DA9C001B222380EA54238801339BB2EA1823808B
:10DAAC00E950BDF80D30938023889DF8082006338B
:10DABC009BB212F0FE0218BF01222380EA54238885
:10DACC0001332380B378FBB123880433BB42CFD816
:10DADC0002A8FFF747FF002840F0F58023880322B7
:10DAEC00EA54238801339BB219222380EA542388F9
:10DAFC00BDF8082001339BB2E9182380EA54120ABE
:10DB0C004A70238802332380F2789AB12388D91C77
:10DB1C00B942ADD80221E954238801339BB20121CB
:10DB2C002380E95423880B449BB22380EA54238836
:10DB3C000B4423807268AAB12388D91CB94297D8A8
:10DB4C00022192F90020E954238801339BB20A2167
:10DB5C002380E954238801339BB22380EA54238821
:10DB6C00013323803389002B40F0A180338A5BB1D1
:10DB7C00CDE900472B460722032106F11000FFF7E1
:10DB8C004DFF002840F09F80338B5BB1CDE90047FF
:10DB9C002B461522142106F11800FFF73FFF002831
:10DBAC0040F09180326A002A40F09080D6F82480B0
:10DBBC00B8F1000F30D0B8F804302188981C8A1CBA
:10DBCC000244BA423FF654AFFE283FF651AF03333E
:10DBDC006B54238801339BB2FF222380EA542388A1
:10DBEC0001339BB22380B8F80020EA54E918120ADA
:10DBFC004A702088023080B22080B8F804205AB1D4
:10DC0C00D8F8081000296BD0284404F0BEFA2388F9
:10DC1C00B8F804201344238096F82C30002B40F0E5
:10DC2C009880307800284ED03388012B58D0228829
:10DC3C0002F1020CBC453FF61BAF012805D17378ED
:10DC4C00023313449F42FFF413AF023FBF1ABFB21B
:10DC5C0002A905EB0C00ADF80870FFF785FE90BB30
:10DC6C003178BDF80830022900F0B98072789A42F8
:10DC7C0002D39F4280F0B180012940F0B2809742DC
:10DC8C0093B2C0F0AE80ADF808300821BDF8083072
:10DC9C00FE2B3FF6EDAE22880133AB5422880132C5
:10DCAC0092B22280A9542288134423800BE0CDE940
:10DCBC0000472B460622022106F10800FFF7AEFEB4
:10DCCC0000283FF453AF05B0BDE8F08FB4F800C0A6
:10DCDC000CF10603BB423FF6CBAE1188052901D8E7
:10DCEC000720F0E76FF4486E01EB0E039BB24FF286
:10DCFC007D3E7345F4D95388052BF1D96FF44860F8
:10DD0C00181880B27045EBD94FF6FF70814201D0E4
:10DD1C009942E5D8052305F80C30238801339BB2D2
:10DD2C0012212380E954238801339BB2238011886C
:10DD3C00E954E818090A4170238802339BB2238006
:10DD4C005288EA54E918120A4A7023880233238055
:10DD5C002CE7B36A002BC3D04FF000084FF00C0A2D
:10DD6C004FF0160BB16A5FFA88F20AFB02F201EB74
:10DD7C000209B9F80430981CFE283FF679AE2088C9
:10DD8C0003332B54238801339BB2238005F803B053
:10DD9C00238801339BB223808A5AEA54E918120A69
:10DDAC004A702088023080B22080B9F804205AB121
:10DDBC00D9F80810002993D0284404F0E6F92388F8
:10DDCC00B9F804201344238096F82C2008F101089C
:10DDDC005FFA88F39A42C5D823E7092156E79F4298
:10DDEC00FBD2ADF8087050E730B5C8B1F2B10024E1
:10DDFC00651C8D4206DA1588A54212D805196D7876
:10DE0C009D420ED1A14211D9005D48B1013880B2BA
:10DE1C0030B10234A3B210FA84F4A14206DB1380B1
:10DE2C0030BD055D01352C44A4B2E1E70020F7E7D5
:10DE3C0013B513460022ADF806200DF10602044678
:10DE4C00FFF7D2FF10B1BDF80600204402B010BDA0
:10DE5C0072DF704773DF704774DF704738B501228B
:10DE6C0004460D46B0F8D810D0F8D400FFF7E0FF08
:10DE7C0000B1057004F13C0204F1D40104F154002A
:10DE8C00BDE83840FFF7E4BF80F830107047F8B5B4
:10DE9C0004460F46002966D0002864D091F87A30E9
:10DEAC001BB191F89830002B5FD1D7F8A030042B20
:10DEBC005BD0D7F89C30042B57D04FF0000C84F873
:10DECC0002C007F178060FCE251D0FC50FCE0FC56A
:10DEDC0096E8070085E8070084F830C0D7F8A4302E
:10DEEC006363D7F8A830A36304F1D4024FF6FF7331
:10DEFC00C4F8EAC0A4F8E830C4F8E420C4F8EDC0D3
:10DF0C0022780AB984F85430224604F155011F25B1
:10DF1C00C4F8D410384622F8D85FFFF79BFD08BB35
:10DF2C00224604F19301C4F8DC1007F13C0022F8FE
:10DF3C00E05FFFF78FFDA8B9A369A4F848304FF450
:10DF4C0080730125A4F8503063692064014684F87D
:10DF5C003C50636404F13C0204F15400FFF778FF79
:10DF6C0000B92570F8BD0E20FCE70720FAE7F8B5DC
:10DF7C00077804460D46002F00F0F6800023C0F809
:10DF8C00EA30C0F8ED30C388817000F1EA060BB1BD
:10DF9C00012903D0E37943B1022D06D1636BABB1F8
:10DFAC00012284F8F1200820984704F1EB0304F1D6
:10DFBC00F10113F8012B12B99942FAD117466B1ED5
:10DFCC00032B4ED8DFE803F0050B0F1284F8F13069
:10DFDC00EBE7A3791BB194F8243003B95FB9E3796B
:10DFEC000BB1002F3FD1237A002B3ED1637A002B4B
:10DFFC000CBF00250425636BA570002B37D0033DA7
:10E00C00012D34D8627992B394F8F2207ABB84F85B
:10E01C00F420012284F8F3200720984704F13C05F2
:10E02C0018220021284604F0D9F8E26A531E012177
:10E03C00022B94F8243084F83C1028BF0A4684F84C
:10E04C00512033B1A36A5A1E022A28BF0B4684F80A
:10E05C005230A378042B1CD8DFE803F06D0D23336A
:10E06C0053000025C7E70225C5E70325C3E70023B6
:10E07C0084F8F330D2E7012384F831300023C4E96B
:10E08C001063C4F8E430022384F83C308023A4F8F5
:10E09C004830A378002B52D1636B002B60D1002049
:10E0AC005DE0022384F83130032384F83C3023698B
:10E0BC00A4F848300023C4F8E430E36826646364B1
:10E0CC00E7E763696364A369A4F848306379B3B183
:10E0DC0094F8F2309BB994F8F43083B1022384F8AD
:10E0EC00503004212046FFF7B9FE0028D1D105237A
:10E0FC0084F8313004F1D403C4F8E430C9E70323C5
:10E10C00F6E7E3696364236AA4F84830637983B162
:10E11C0094F8F2306BB994F8F43053B1022384F8CC
:10E12C00503004212046FFF799FE0028B1D1062378
:10E13C00DEE70423DCE7002384F83130A9E7D4F8C8
:10E14C00E4102A4604F15400FFF782FE38B994F823
:10E15C00301094F85400FFF77DFE00289CD0F8BDD9
:10E16C0094F8310098479AE70820F8E70388112BB8
:10E17C0010B50C460AD0262B1FD0102B05D1C37B13
:10E18C00012B02D18388A1F8E83010BD00228388CE
:10E19C0081F8F220B1F8E8209A42F6D10B79002BE5
:10E1AC00F3D101212046FFF7E2FE0028EDD0A36B4E
:10E1BC00002BEAD0BDE810401847037A013B012B35
:10E1CC00E3D8897805230131B1FBF3F303EB830327
:10E1DC00C91AC9B2E6E738B5044690F85400FFF7FF
:10E1EC003BFE012384F8F230002384F8F43084F8E9
:10E1FC00503006212046FFF731FE054638B9A1788C
:10E20C002046FFF7B4FE10B1A36B03B19847284624
:10E21C0038BD75DF704776DF70477ADF70477BDF7C
:10E22C0070470000034B1A8882420CBF184600202E
:10E23C00704700BFF8270020024B9B6903B11847B9
:10E24C00704700BFDC27002073B585B22846FFF766
:10E25C00E9FF044638B3174E027A337B9A420CD24C
:10E26C0000F10A012846FFF7D4FFF0B111281AD0AB
:10E27C0002B0BDE87040FFF7DFBF00230372337CB0
:10E28C0043B13B212846FFF7C6FF30F0080301D00D
:10E29C00FFF7D2FF736933B100228DF80420ADF87B
:10E2AC00065001A8984702B070BD237A013323723F
:10E2BC00F9E700BFDC27002013B50B46497A02466C
:10E2CC000E4871B9D0E901101C7A002C18BF014618
:10E2DC005868FBF76CFF78B102B0BDE81040FFF74F
:10E2EC00ABBF00211972436933B101218DF80410C1
:10E2FC00ADF8062001A8984702B010BDDC2700201D
:10E30C004B8802889A4212D842889A420FD380884E
:10E31C008B8840F2F311884294BF021A421A9A4237
:10E32C0005D80844984234BF0020012070470020D3
:10E33C00704700000388122B70B5014659D004D8E1
:10E34C00102B1ED0112B44D070BD502BFCD12F4B59
:10E35C00C288DB899A42F7D1038A022BF4D18688D2
:10E36C003046FFF75FFF05460028EDD001F11200A3
:10E37C0000F0D4F938BB6868FBF731FF0028E3D014
:10E38C0009E0C37B012BDFD14FF6FF70FFF74AFF8B
:10E39C00054620B90420BDE87040FFF74DBF1C4A6C
:10E3AC008E880680002303721368C0F80A30536805
:10E3BC00C0F80E3010310A30FFF7A2FF134B687211
:10E3CC00DB89002BC0D129463046BDE87040FFF7F1
:10E3DC0073BF8088FFF726FF04460028B4D040683E
:10E3EC00FBF7FDFE08B1FFF727FF4FF6FF73238005
:10E3FC00AAE786883046FFF715FF05460028A3D00C
:10E40C0008310A30FFF77CFF6872DCE7DC2700205C
:10E41C000C280020F8B5064648B305460FCD154F1D
:10E42C003C460FC495E8070084E807003068124C9E
:10E43C003C60B0B1FFF7F1FEC0B9326813682360DD
:10E44C00536863600D480E4A4FF6FF7303800D4B03
:10E45C0040F8043F0021FBF79FFE002818BF032063
:10E46C0004E02046FFF7DBFE0028EBD0F8BD0E20C1
:10E47C00FCE700BFDC2700200C280020F827002038
:10E48C0055E2010018280020F7B5174601900E46FA
:10E49C0091B1019C6CB100252C46294601A8FDF7D1
:10E4AC0018F918B13946A8B2B04701340135142D0A
:10E4BC00F3D1204603B0F0BD0C46FAE70AB1FDF7E4
:10E4CC00E7B8FDF7FCB873B50191019C06466CB139
:10E4DC0000252C46294601A8FDF7FBF818B106EBE0
:10E4EC00440301349D800135142DF3D13046346042
:10E4FC0002B070BD2DE9F04303888488103B8DB0C9
:10E50C000A2B1ED8DFE803F006361D1D1D1D1D1D30
:10E51C001D5B3D002E4FBB68DB430093796868465A
:10E52C00FDF73CF9009901A8FFF7CDFF0DF10808A4
:10E53C000026019B9E4207D3132C12D90420FBF713
:10E54C003BFD0DB0BDE8F08338F8029B002501358A
:10E55C00494607EB8500FDF7B2F81E2DF7D10136C1
:10E56C00E7E721461B48FDF793F81B482146FDF7CA
:10E57C008FF8E6E7174821460DB0BDE8F043FDF7EC
:10E58C009EB8027A15483F2A4FEA1215214694BFCD
:10E59C0000220122FFF792FF022D94BF00220122DC
:10E5AC000F482146FFF78AFF012D0E4894BF002229
:10E5BC00012221460DB0BDE8F043FFF77FBF037A7F
:10E5CC00002BBED1427A0548C2F3C0022146F1E7C6
:10E5DC0038280020402800203C280020502800200B
:10E5EC004C280020482800201328014602D8024855
:10E5FC00FDF76FB8002070473C280020FFF7F4BFF0
:10E60C0010B50446FFF7F0FF38B104482146FDF77A
:10E61C0060F8002814BF0220012010BD4028002003
:10E62C0010B50446FFF7E0FF28B121460248BDE8CB
:10E63C001040FDF74EB810BD4828002010B5044618
:10E64C00FFF7D2FF28B121460248BDE81040FDF784
:10E65C0040B810BD4C28002010B50446FFF7C4FF8D
:10E66C0028B121460248BDE81040FDF732B810BD74
:10E67C005028002008B518210248FDF733F8C0B225
:10E68C0008BD00BF3828002070B50A4E054630463C
:10E69C000C46FDF71EF858B12846FFF7A5FF38B118
:10E6AC000734294606EB8400BDE87040FDF711B82D
:10E6BC00002070BD38280020F8B50B4F05463846B1
:10E6CC000C461646FDF705F860B12846FFF78CFF9F
:10E6DC0040B107343246294607EB8400BDE8F840C8
:10E6EC00FFF7ECBEF8BD00BF38280020F8B50A4D86
:10E6FC0004460E46014628461746FCF7EAFF48B189
:10E70C00063405EB84043A4660683146BDE8F840AF
:10E71C00FFF7BABEF8BD00BF38280020008800F013
:10E72C0001007047A0DF7047A1DF7047ADDF704775
:10E73C00B3DF7047B4DF704710B50446408800F073
:10E74C0089FDA0802046BDE8104001F08DBD30B59C
:10E75C0087B005460C461422002101A803F03EFDAB
:10E76C00072301A88DF80430ADF806500394FFF789
:10E77C00E3FF07B030BD000070B586B0054614222B
:10E78C00002101A803F02AFD4FF6FF739D42ADF85E
:10E79C0006503FD0284600F04FFC1128044633D0D9
:10E7AC0016D8D8B10B2820D02046FDF751FE1A4EB2
:10E7BC001A4902461A48361AF608360446F0010081
:10E7CC002B46FBF710F921462846FFF7C0FF03E064
:10E7DC0043F202039842E7D1002216E00E238DF893
:10E7EC00043001A8FFF7A8FFF6E70F238DF80430DB
:10E7FC0009480B4B0B49C01AC00800042A4640F0CC
:10E80C000200FBF7E7F8ECE70122074B28461978E2
:10E81C00FFF752FF06B070BDF82302009A2E0200DB
:10E82C00802302001A2E0200BB280020FFF7A4BF91
:10E83C00024B034918780022FFF758BFBD2800206F
:10E84C0051E801002DE9F047DFF8248188B098F8F1
:10E85C0000100446FFF718FF0646002840F084809D
:10E86C00204600F04DFC0828054632D016D808B3D7
:10E87C0006285BD02846FDF7EBFD3E4F3E4902468D
:10E88C003E483F1AFF083F0447F001002346FBF7C0
:10E89C00AAF829462046FFF75AFF09E043F2020383
:10E8AC00984205D043F20143984259D01128E1D146
:10E8BC00012546E03146142203A803F08FFC1023F7
:10E8CC0003A88DF80C30ADF80E400126FFF734FF8D
:10E8DC00EEE70DF10600FFF72BFF354601274FF051
:10E8EC00020A0DF10809BDF80630BB421ED9002200
:10E8FC0049463846CDE903A9FFF71CFFB0B9BDF86E
:10E90C0008303DB942F605255B1B5D425D41013780
:10E91C00BFB2E8E742F602129342F8D101AB03AA68
:10E92C00394620460493FFF701FF30B1204600F032
:10E93C0091FC00F011FC002503E0BDF80430002B25
:10E94C00F4D00F4B2A4619782046FFF7B5FE98F8FD
:10E95C0000103246204608B0BDE8F047FFF7ACBEC9
:10E96C002046FFF709FFA3E708B0BDE8F08700BF1A
:10E97C00BE280020F8230200EB2E020080230200A8
:10E98C00BD28002013B5044600F064FC00236A4641
:10E99C00092101F039F8052805D1044B0122197819
:10E9AC002046FFF789FE02B010BD00BFB928002039
:10E9BC0008B5084B084918780022FFF797FE024665
:10E9CC0030B9064B06491878BDE80840FFF78EBEF3
:10E9DC0008BD00BFBC2800202DEA0100B92800208A
:10E9EC00F1E9010037B542F6A623ADF800300A4B29
:10E9FC00044618680190012501AA69462046ADF825
:10EA0C000250FFF78FFE28B9044B2A46197820468E
:10EA1C00FFF752FE03B030BD28310200B8280020A9
:10EA2C0070B5012186B006462A48FCF788FE0446DC
:10EA3C00BFF35F8F002849D1304600F0A1FA862839
:10EA4C0005461ED017D8A8B3112841D02846FDF78B
:10EA5C00FFFC214C214902462148241AE4082404D5
:10EA6C0044F001003346FAF7BEFF29463046FFF763
:10EA7C006EFE002403E043F202039842E6D12246E4
:10EA8C001AE02146142201A803F0A8FB06238DF8F6
:10EA9C0004301148124B1349ADF80660C01AC00877
:10EAAC000004324640F00200FAF794FF01A8FFF789
:10EABC0043FEE4E7012402460B4B30461978FFF77E
:10EACC00FBFD1CB9BFF35F8F024B1C6006B070BD21
